:1000000000001E308A002B2EFF00030E8301A1008A
:100010000A08A0008A010408A2007708A300780853
:10002000A4007908A5007A08A600831383120B1E8A
:100030001B288B183C288C308400801E21288C1AA9
:100040003F288C308400001C27280C1842288B1E67
:100050002B280B194528220884002308F7002408C0
:10006000F8002508F9002608FA0020088A00210E69
:100070008300FF0E7F0E09008A110A1201298A11DE
:100080000A12CE298A110A12602B8A110A127328C9
:100090000A108A100A1182079834963493349034E7
:1000A0008E348B3489348634843481347F347C3488
:1000B0007A3477347534723470346D346B34693417
:1000C00066346434623460345D345B34593457349C
:1000D0005534533451340A108A100A1182072834D7
:1000E0000C340134063451115108831687008312F1
:1000F0000711BB187E288B120B1195285008023C63
:10010000031C9528CF08031D8A280130CF007530C5
:1001100081009428CF015111510883168700831262
:100120000715D00AB23081000B110B118A110A1287
:100130002B280B088316E30083128B1383160317F7
:100140008C170C140000000083120C087F3903196F
:10015000F82883160313E400831203170D0883168F
:100160000313E500831203170F0883160313E60039
:10017000640883120C1EBA2899008316650883123E
:1001800003178D00831603136608831203178F006D
:1001900083168C170C140000000083120C0D0E0D3A
:1001A0007F390319F82883160313E4008312031719
:1001B0000D0883160313E500831203170F08831637
:1001C0000313E600640883120C1EE42899008316CA
:1001D0006508831203178D008316031366088312C4
:1001E00003178F008D0A03198F0A03139E28031724
:1001F00083160313E31FFF2883128B1783168312C2
:100200000800BB1E4C29CE1F0829BB1403140A2961
:10021000BB100310CB0DCC0DCD0DCE0DBC0B3B296F
:100220003B1F1C298316091083120914BB12831665
:100230008910831289143B293B170A308316E20088
:1002400003108312CE1F252903148316E3016208CD
:100250006302031833298312CB0DCC0DCD0DCE0DC7
:100260008316E30A27298312BB1F39291C30BC00DF
:100270003B291630BC00BB1C4B29CF010130D000FC
:10028000511151088316870083120715B23081007F
:100290000B118B164C29BB10D11551088316870002
:1002A0008312871D55293B1056293B1403103B1C14
:1002B0005A290314C70DC80DC90DCA0D4A08831663
:1002C000E2000F30E2050E30E206E208031DA52928
:1002D00083124308C4004508C6004908C300480803
:1002E000C50044084302031DA42946084502031D16
:1002F000A42947088316E200C030E2054030E20638
:10030000E208031D8A2983124608C2003B113B16EE
:10031000A4298316831247088316E200C030E20541
:100320008030E206E208031D9C2983124608C000C3
:100330003B153B16A4298316B030831203178D009A
:1003400001308F00031399208316011FA92901137F
:10035000AA29011783128B108B108A110A122B28DD
:10036000EE32693AE8327210D8183010E337ED36C1
:10037000613764106F39A0306432F232F3392034BF
:10038000E1392031E5326E1070396F386539EC3C57
:100390002039E531E534F63264050000A0305A0713
:1003A000840083138C1ED2291A0880005A088316F1
:1003B000E200013083125A071F39DA005B085A0243
:1003C000031DE629831662088312DA005C148C127E
:1003D0008A110A122B28C1260000D02600005910CD
:1003E000201020004E10201020002D002010200092
:1003F000D032F231653774104F373A0025102000A3
:10040000D33274106839731020102010201020107F
:100410000001D3327410ED346E1020102010201023
:1004200020100001CF353F00D33274105537693AA0
:1004300020102010201020100001D3327410C83773
:10044000F539651020102010201000013A003A0004
:1004500020002010000143003A002000201000007E
:10046000D732EC31EF366510C837ED32211020104D
:100470000001D332EC32633A20237537633AE9370F
:100480006E1D0001D3327410D33C733AE536202A36
:10049000E93665100001D3327410D33C733AE53667
:1004A000A0206432721000015039EF33F2306D1029
:1004B0005537693A2010201000015039EF33F230DF
:1004C0006D104F372D2AE936651000015039EF3392
:1004D000F2306D104F33E616D434ED320001D332D2
:1004E0007410CC3467347410D332EE396F39000194
:1004F000D3327410C434ED3665392026E933683AB6
:100500000001D43A7237A0276E105537693A20108F
:1005100020100001D43A7237A0276633A02AEE34A7
:10052000741020100001D3327410D33C733AE536B6
:10053000202AE93665100001D3327410D33C733A97
:10054000E536A020643272100001D3327410CC342E
:1005500067347410D332EE396F3900015039EF33FC
:10056000F2306D105537693A2010201000014F37D6
:10057000A0307410C43AF3353F004F336610613A2F
:100580002022E13BEE1F0001D3327410C434ED365B
:1005900065392026E933683A0001D032F2316537F7
:1005A000F430E732A027EB1F0001D43A7237A027BE
:1005B0006E105537693A201020100001D43A723776
:1005C000A0276633A02AEE347410201000015D11BC
:1005D0008316621CEE2A83125D158316E3018312D3
:1005E0005D088316E40083128810F03083168800BB
:1005F000831208150000081400000808080E0F39BF
:100600008316E6008312081000000814072B082B3D
:1006100000000808080E0F398316E5008312081041
:10062000003083168800660EF700F030F705770873
:100630006504F8007808E500E51F202B8312F52AF1
:100640006318252B831288108316631C2A2B8312B0
:100650008814831600008312081100000810831606
:10066000640EE5000F30E5056508E600660EF0391A
:10067000F7000F3083120805770488000000081483
:100680000330F700F70B422B0810831664080F396C
:10069000E5006508E600660EF039F7000F308312BA
:1006A000080577048800000008140330F700F70BF2
:1006B000572B081000005330F700F70B5D2B080094
:1006C000FC308F00CD308E00D60A5608283C031D22
:1006D000B32BD601D50A8316E2018312D20108306A
:1006E000F8001F08C73978049F001030F700F70B97
:1006F000772B00001F151F197B2B1E088316E400A3
:100700006408F8007808E300620883124820F800C3
:10071000D2008316E20A8312520883166302031C76
:10072000842B01306202053E8312D20055083C3C06
:10073000031DB32BD501D40A281554083C3C031DD6
:10074000B32BD401D30A53080C3C031DAD2BA91EB7
:10075000AB2BA912AC2BA916B32B53080D3C031DD0
:10076000B32B0130D3002914A9150608E100310884
:10077000E104C130E1040608B100E319C32BE11D17
:10078000C32BE211C42BE215E318CA2BE11CCA2BC0
:10079000E210CB2BE2146319D12B611DD12B621116
:1007A000D22B6215631AD82B611ED82B6212D92B5B
:1007B0006216E31ADF2BE11EDF2BE212E02BE216BA
:1007C0006208FF3A0319E52B2814E4146415E118B4
:1007D000F22BAC0A2C080A3C031DF12BE210E410AA
:1007E000AC01F32BAC016119FE2BAD0A2D080A3CBC
:1007F000031DFD2B62116411AD01FF2BAD016408D7
:10080000FF3A0319042C2814281C1B2CD508031D9F
:100810000C2C3B30D7000F2C01305502D700013093
:10082000E5008316E2008312E72283160911831282
:100830000915A8122D2C650B2C2C57085502031DE9
:100840002B2CA814E50183160911831209118316B4
:10085000E2018312E7222D2CA810A81E3C2C570879
:100860005502031D3C2CA81283160911831209118D
:100870008316E2018312E7226108E3000C108A115B
:100880000A122B28D732EC31EF366510C837ED321B
:100890000A00D501D4010C30D3003B30D700AB01A6
:1008A000AA012914A914A9112810FF30E100E300BE
:1008B000E200E400E5012911AE010730AF00831624
:1008C000C001400F642C902C4008831203178D0048
:1008D00083168C130C1483120C0883160313C100A7
:1008E000410F8E2C4008831203178D008C01831654
:1008F0008C130C15831203130B08F7008B1383164C
:10090000031755308D00AA308D008C148C18862C5E
:100910000C117708831203138B048316C00A612C11
:100920004008831203178D0083168C130C14831256
:100930000C0883160313C100410FBA2CFF30831239
:1009400003178D008C0183168C130C15831203136F
:100950000B08F7008B138316031755308D00AA3050
:100960008D008C148C18B22C0C1177088312031391
:100970008B0483160130831203178D0083168C13AA
:100980000C1483120C080313B2003208073C03183E
:10099000CB2C0130B2003208B600023003178D00B4
:1009A00083168C130C1483120C080313B300330842
:1009B000073C0318DC2CB3013308B500E601E7015E
:1009C000A8132813BB170130D800B901BA01A81623
:1009D00083160911831209158A150A164A2EC701B2
:1009E000C801C901CA01C301C401C501C601C201D0
:1009F000C001CB01CC01CD01CE01BF01BE01BD01C3
:100A0000BB01CF010130D0008A150A164F2E831684
:100A10000108C0390538810083128A150A16542E40
:100A2000FC308F00CE308E008F30900083160C1477
:100A300083128A150A16592E511151088316870000
:100A4000831207118A150A165E2E83161F109F1433
:100A50001F159F1583121F139F1783169F13831251
:100A60001F140030F8001F08C73978049F008A154A
:100A70000A16632E83168516801683128A150A16A7
:100A8000682E8316011783120B168A150A166D2E0F
:100A90000030831688008312881008110810143063
:100AA0008316C600C6308400831300080319652D21
:100AB0000630F800F701F70B5B2DF80B5A2D7B3051
:100AC000F700F70B612D800B582D0130C000400856
:100AD000033C031C942D0330E600660EF039F7004A
:100AE0000F308312080577048800000008140330D3
:100AF000F700F70B792D081005308316C600C630B5
:100B00008400831300080319922D0630F800F701C2
:100B1000F70B882DF80B872D7B30F700F70B8E2D08
:100B2000800B852DC00A672D0230E600660EF03975
:100B3000F7000F30831208057704880000000814BE
:100B40000330F700F70BA22D08108316C0014008F0
:100B5000033C031C1E2E400883126B208316C10029
:100B6000E3014108E40083128810F0308316880006
:100B7000831208150000081400000808080E0F3939
:100B80008316E6008312081000000814C72DC82D34
:100B900000000808080E0F398316E50083120810BC
:100BA000003083168800660EF700F030F7057708EE
:100BB0006504F8007808E500E51FE02D8312B52DE7
:100BC0006318E52D831288108316631CEA2D8312A7
:100BD0008814831600008312081100000810831681
:100BE000640EE5000F30E5056508E600660EF03995
:100BF000F7000F30831208057704880000000814FE
:100C00000330F700F70B022E0810831664080F3923
:100C1000E5006508E600660EF039F7000F30831234
:100C2000080577048800000008140330F700F70B6C
:100C3000172E081000008316C00AA72D83128A15EC
:100C40000A16722EAA01AB01AE01A9140730AF003B
:100C50000800013083164702FC3E0318432E043E71
:100C60008312B22E80308316C800432EBC30831608
:100C7000C800432E90308316C800432ECB30831615
:100C8000C800432E831601304602C807E301480816
:100C9000E40083128810F030831688008312081550
:100CA0000000081400000808080E0F398316E6003B
:100CB00083120810000008145D2E5E2E0000080844
:100CC000080E0F398316E5008312081000308316D2
:100CD0008800660EF700F030F70577086504F80025
:100CE0007808E500E51F762E83124B2E63187B2EC5
:100CF000831288108316631C802E83128814831637
:100D0000000083120811000008108316640EE5002D
:100D10000F30E5056508E600660EF039F7000F3084
:100D20008312080577048800000008140330F700D8
:100D3000F70B982E0810831664080F39E500650834
:100D4000E600660EF039F7000F30831208057704CD
:100D50008800000008140330F700F70BAD2E0810D0
:100D6000000008000A108A140A158207322E362E57
:100D70003A2E3E2E0B088316C10083128B13831666
:100D800003178C170C140000000083120C087F3925
:100D900003191B2F83160313C200831203170D08B8
:100DA00083160313C300831203170F08831603135C
:100DB000C4004208C5008A15831200208A118316D8
:100DC0004308831203178D0083160313440883120C
:100DD00003178F0083168C170C1400000000831279
:100DE0000C0D0E0D7F3903191B2F83160313C20040
:100DF000831203170D0883160313C300831203170E
:100E00000F0883160313C4004208C5008A15831215
:100E100000208A1183164308831203178D0083165E
:100E200003134408831203178F008D0A03198F0AD6
:100E30000313BF2E031783160313C11F222F831220
:100E40008B1783168312080001308316C600C70073
:100E5000831229262E08F53E0318882F0B3E892F72
:100E6000303003178D0002308F000313BA26882F0D
:100E7000393003178D0002308F000313BA26882FF4
:100E8000423003178D0002308F000313BA26882FDB
:100E90004B3003178D0002308F000313BA26882FC2
:100EA000543003178D0002308F000313BA26882FA9
:100EB0005D3003178D0002308F000313BA26882F90
:100EC000663003178D0002308F000313BA26882F77
:100ED0006F3003178D0002308F000313BA26882F5E
:100EE000783003178D0002308F000313BA26882F45
:100EF000813003178D0002308F000313BA26882F2C
:100F00008A3003178D0002308F000313BA26882F12
:100F100008000A148A140A158207302F382F402F30
:100F2000482F502F582F602F682F702F782F802F29
:100F3000831641088312AA00AB01291683164108C3
:100F40008312AE00A914831642088312AF008316E1
:100F500043088312B000A91508000B138B138B1BD9
:100F6000AE2F83165A08831203178D0083160313BE
:100F70005B08831203178C0083168C130C158312E5
:100F800003130B08F7008B138316031755308D00DE
:100F9000AA308D008C148C18CB2F0C11770883127B
:100FA00003138B04C0308B04080001308316440205
:100FB000103EC5004508831203178D0083168C135D
:100FC0000C1483120C0883160313C600C308031DF8
:100FD000EC2F0F30C605F12FF030C605C60E0F30CE
:100FE000C60546080C3C031CF92F4608F800FC2FE8
:0C0FF000FC2F0030F800FC2F83120800DA
:10100000831645080C3A831203190D28063A031972
:101010009228023A0319A0280F298316E301013010
:10102000E40083128810F0308316880083120815BC
:101030000000081400000808080E0F398316E600A7
:10104000831208100000081425282628000008082C
:10105000080E0F398316E50083120810003083163E
:101060008800660EF700F030F70577086504F80091
:101070007808E500E51F3E288312132863184328EB
:10108000831288108316631C4828831288148316E1
:10109000000083120811000008108316640EE5009A
:1010A0000F30E5056508E600660EF039F7000F30F1
:1010B0008312080577048800000008140330F70045
:1010C000F70B60280810831664080F39E5006508DF
:1010D000E600660EF039F7000F308312080577043A
:1010E0008800000008140330F700F70B752808107B
:1010F00000000130DE0002308316C600C6308400D6
:1011000083130008031991280630F800F701F70B44
:101110008728F80B86287B30F700F70B8D28800B8B
:1011200084287E29DE0A01308316C60083125E08F9
:101130008316C7008A11831229268A1583167E29F1
:101140008316E3011030E40083128810F030831618
:101150008800831208150000081400000808080E13
:101160000F398316E6008312081000000814B8280F
:10117000B92800000808080E0F398316E50083120D
:101180000810003083168800660EF700F030F7056F
:1011900077086504F8007808E500E51FD128831278
:1011A000A6286318D628831288108316631CDB28B0
:1011B000831288148316000083120811000008109F
:1011C0008316640EE5000F30E5056508E600660E3F
:1011D000F039F7000F30831208057704880000000B
:1011E00008140330F700F70BF3280810831664087F
:1011F0000F39E5006508E600660EF039F7000F309C
:101200008312080577048800000008140330F700F3
:10121000F70B08290810000083167E29831201307D
:101220008316E3004508E40083128810F03083162B
:101230008800831208150000081400000808080E32
:101240000F398316E60083120810000008142829BD
:10125000292900000808080E0F398316E5008312BB
:101260000810003083168800660EF700F030F7058E
:1012700077086504F8007808E500E51F4129831226
:10128000162963184629831288108316631C4B297C
:1012900083128814831600008312081100000810BE
:1012A0008316640EE5000F30E5056508E600660E5E
:1012B000F039F7000F30831208057704880000002A
:1012C00008140330F700F70B63290810831664082D
:1012D0000F39E5006508E600660EF039F7000F30BB
:1012E0008312080577048800000008140330F70013
:1012F000F70B78290810000083167E298312080056
:1013000001308316C6000230C7008A1183122926D5
:101310008A152F08F23E0318122C0E3E132C933020
:1013200003178D0002308F008A110313BA268A1525
:10133000122C9C3003178D0002308F008A1103138A
:10134000BA268A15122CA53003178D0002308F00A3
:101350008A110313BA268A15122CAE3003178D009A
:1013600002308F008A110313BA268A15122C01301D
:101370008316C6000230C7008A11831229268A15F7
:1013800053088316C0004008C10041088312E000E2
:10139000DF010A3060028316C200C21BD429420852
:1013A0008312E000DF0A8316C21BD9298312C929E0
:1013B000831630308312E007DF075F088316C5000D
:1013C0008312002060088316C50083120020263097
:1013D00003178D0002308F008A110313BA268A1575
:1013E00054088316C0004008C10041088312E00081
:1013F000DF010A3060028316C200C21B042A4208C1
:101400008312E000DF0A8316C21B092A8312F9291E
:10141000831630308312E007DF075F088316C500AC
:101420008312002060088316C50083120020273035
:1014300003178D0002308F008A110313BA268A1514
:1014400055088316C0004008C10041088312E0001F
:10145000DF010A3060028316C200C21B342A420830
:101460008312E000DF0A8316C21B392A8312292A5D
:10147000831630308312E007DF075F088316C5004C
:101480008312002060088316C500831200202830D4
:1014900003178D0002308F008A110313BA268A15B4
:1014A00005308316C00083122908F7008316400810
:1014B000F80003195F2A0310F70CF80B5B2A771862
:1014C0006D2AEB30831203178D0001308F008A11D3
:1014D0000313BA268A15772A8316ED308312031771
:1014E0008D0001308F008A110313BA268A15293026
:1014F00003178D0002308F008A110313BA268A1554
:1015000052088316C0004008C10041088312E00061
:10151000DF010A3060028316C200C21B942A42080F
:101520008312E000DF0A8316C21B992A8312892ADC
:10153000831630308312E007DF075F088316C5008B
:101540008312002060088316C500831200202B3010
:1015500003178D0002308F008A110313BA268A15F3
:10156000122C01308316C6000230C7008A11831284
:1015700029268A1537088316C0004008C100410893
:101580008312E000DF010A3060028316C200C21B32
:10159000CE2A42088312E000DF0A8316C21BD32A38
:1015A0008312C32A831630308312E007DF075F08F7
:1015B0008316C5008312002060088316C5008312BD
:1015C00000202C3003178D0002308F008A11031386
:1015D000BA268A1538088316C0004008C1004108A1
:1015E0008312E000DF010A3060028316C200C21BD2
:1015F000FE2A42088312E000DF0A8316C21B032B77
:101600008312F32A831630308312E007DF075F0866
:101610008316C5008312002060088316C50083125C
:1016200000202D3003178D0002308F008A11031324
:10163000BA268A1506308316C00083122908F700DF
:1016400083164008F8000319292B0310F70CF80B38
:10165000252B7718372BEB30831203178D000130C1
:101660008F008A110313BA268A15412B8316ED3099
:10167000831203178D0001308F008A110313BA26DD
:101680008A152E3003178D0002308F008A11031344
:10169000BA268A15122C01308316C6000230C70004
:1016A0008A11831229268A1536088316C5008312EB
:1016B0000020F53003178D0001308F008A110313CD
:1016C000BA268A1535088316C0004008C1004108B3
:1016D0008312E000DF010A3060028316C200C21BE1
:1016E000762B42088312E000DF0A8316C21B7B2B95
:1016F00083126B2B831630308312E007DF075F08FD
:101700008316C5008312002060088316C50083126B
:101710000020F63003178D0001308F008A1103136B
:10172000BA268A15122CB73003178D0002308F00AD
:101730008A110313BA268A15122CBD3003178D00A7
:1017400002308F008A110313BA268A15122CC43076
:1017500003178D0002308F008A110313BA268A15F1
:10176000122C01308316C6000230C7008A11831282
:1017700029268A15F83003178D0001308F008A1151
:101780000313BA268A1559088316C0004008C10001
:1017900041088312E000DF010A3060028316C200B4
:1017A000C21BD72B42088312E000DF0A8316C21B3C
:1017B000DC2B8312CC2B831630308312E007DF073B
:1017C0005F088316C5008312002060088316C500D9
:1017D00083120020FE3003178D0001308F008A1124
:1017E0000313BA268A15122CCD3003178D00023050
:1017F0008F008A110313BA268A15122CD5300317CD
:101800008D0002308F008A110313BA268A15122C1C
:10181000DE3003178D0002308F008A110313BA26C1
:101820008A15122C08000A108A100A1582078F29BF
:101830009929A329AD29A72BFE2B082CB729B12A5A
:101840004B2B932B9D2BB12BF42B3008FA3E031816
:10185000882C063E892C003003178D0002308F0043
:101860008A110313BA268A15882C093003178D00B4
:1018700002308F008A110313BA268A15882C123081
:1018800003178D0002308F008A110313BA268A15C0
:10189000291E542CEF3003178D0001308F008A1160
:1018A0000313BA268A155D2CF23003178D00013020
:1018B0008F008A110313BA268A15882C1430031757
:1018C0008D0002308F008A110313BA268A15882CE6
:1018D0001D3003178D0002308F008A110313BA26C2
:1018E0008A15882C291E7E2CEF3003178D000130BD
:1018F0008F008A110313BA268A15872CF23003173A
:101900008D0001308F008A110313BA268A15882CA6
:1019100008000A108A100A1582072B2C352C3F2C40
:101920005E2C682C722CE21C972CE219A12CAF08BB
:10193000031D9E2C0630AF00AB00A02CAF03AB0301
:10194000162D6219AD2C2F08063C031DAA2CAF01E1
:10195000AB01AC2CAF0AAB0A162D621A162D413022
:101960003207B60001303307B5002B08F93E0318E3
:10197000162D073E202D02308316C1000830C2000C
:10198000C3018A11831298278A155308B700540897
:10199000B800A91ECD2C2917CE2C2913162D0330E3
:1019A0008316C1000930C2000430C3008A118312BB
:1019B00098278A15162D07308316C1000930C200FA
:1019C0000330C3008A11831298278A15162D04301C
:1019D0008316C1000930C2000330C3008A1183128C
:1019E00098278A15162D08308316C1000930C200C9
:1019F0000330C3008A11831298278A15162D0930E7
:101A00008316C100C2000330C3008A1183129827D5
:101A10008A15162D0A308316C1000930C200033022
:101A2000C3008A11831298278A15162DE21A1B2DDE
:101A30008A1122268A15281029148A110A16D52DF2
:101A40000A148A100A158207BB2CCF2CDB2CE72C3A
:101A5000F32CFF2C0A2D83165D0B332D01305E0213
:101A6000203EDF00372D01305E02303EDF005F0890
:101A7000831203178D0083168C130C1483120C0829
:101A800083160313E00060083F393B3C031C4C2DD8
:101A90006008F800502D502D6008C039F800502D16
:101AA000831208008316570B5A2D8312B70EF0309D
:101AB000B7058316013083123502103E8316D80015
:101AC0005808831203178D0083168C130C1483128D
:101AD0000C0883160313D900570B712D0F30D9054D
:101AE000732DF030D905831237088316D9045808AE
:101AF000DA005908DB008A118312AD278A153808ED
:101B00008316D9008312291F892D8316D9178B2D8F
:101B100083128316D9135708DA0083123508831607
:101B2000DB00DC015A08DD005B08DE0083122B2598
:101B300078088316DC005C1FA12D0130F800A42D6D
:101B4000A42D0030F800A42DF8080319A92D591769
:101B5000AA2D5913570BB32D013083123502203EA5
:101B60008316D800B92D013083123502303E83161A
:101B7000D8005808DA005908DB008A118312AD2713
:101B80008A150800E21CC62D6219CD2D291ECA2D0A
:101B90002912CB2D2916A915722E621A722E291E12
:101BA000152E8316400B062E0130D70083125225C6
:101BB0008316C301831235088316C4008A11831269
:101BC000D5278A157808B7008316DD0183123508FA
:101BD0008316DE0083122B257808B800F701B81BA6
:101BE0007714770801390319F72D2917F82D2913D0
:101BF0003F30B80506308316C1000830C200C3016B
:101C00008A11831298278A15142E8316D7018312FE
:101C1000522504308316C1000930C2000330C300CE
:101C20008A11831298278A15722E8316400B472E2D
:101C30000130C300831235088316C4008A11831251
:101C4000D5278A157808B70001308316DD00831286
:101C500035088316DE0083122B257808B800F701BB
:101C6000B81B7714770801390319382E2917392E34
:101C700029133F30B80505308316C1000830C20073
:101C8000C3018A11831298278A15722E8316C30105
:101C9000831235088316C4008A118312D5278A154A
:101CA0007808B7008316DD01831235088316DE003D
:101CB00083122B257808B800F701B81B7714770832
:101CC00001390319652E2917662E29133F30B805EF
:101CD00006308316C1000830C200C3018A11831286
:101CE00098278A1508000030F8001F08C7397804C3
:101CF0009F001030F700F70B7B2E00001F151F19F7
:101D00007F2E1E08E80068081F3C031C8F2EE70A80
:101D10006708053C031D8E2E2817E701912EE70169
:101D200028136808503C03189D2EE60A6608053CF7
:101D3000031D9C2EA817E6019F2EE601A813013073
:101D4000B40001308316C0000A168A118312E925F7
:101D50000A128A158316C0010A168A118312E92510
:101D60000A128A15B40A3408093C031DA12E281151
:101D70008A150A16B52E83164608F03E0318142F4E
:101D8000103E8312182F6930F800172F8316142F76
:101D9000A930F800172F8316142F5930F800172F89
:101DA0008316142F9930F800172F8316142F5630EE
:101DB000F800172F8316142F9630F800172F83166C
:101DC000142F6630F800172F8316142FA630F80052
:101DD000172F8316142F6A30F800172F8316142F2D
:101DE000AA30F800172F8316142F5A30F800172F37
:101DF0008316142F9A30F800172F8316142F55309E
:101E0000F800172F8316142F9530F800172F83161C
:101E1000142F6530F800172F8316142FA530F80003
:101E2000172F8316142F83160030F8008312080032
:101E30000A148A140A158207C32EC82ECD2ED22E5C
:101E4000D72EDC2EE12EE62EEB2EF02EF52EFA2EDE
:101E5000FF2E042F092F0E2F44088316C000C20145
:101E60004208C6008312BB2678088316C1004008CA
:101E7000C106C108031D3D2F422FC20A4208073C7C
:101E80000318302F4208073C0318482FFF30C200C8
:101E90004208F80078088312C1003B1D522F460803
:101EA000C000732F46088316C000C2014208C60056
:101EB0008312BB2678088316C1004008C106C108FA
:101EC000031D632F682FC20A4208073C0318562FD0
:101ED0004208073C03186E2FFF30C2004208F8008A
:101EE00078088312C2003B1232084102031DA82F5A
:101EF0003B1DA82F33084202031DA82F4008553A66
:101F000003198F2F033A0319942F3F3A0319992F7E
:101F1000303A03199E2F033A0319A32FA82F8316D3
:101F2000851283128516A82F8316851283128512B7
:101F3000A82F8316851283128516A82F8316851263
:101F400083128512A82F8316851283128516A82F57
:101F50008A150A16BD2EA0305B0784008313000883
:101F60008316D800013083125B071F39DB005C1039
:101F700083165808F8007808D7005708F80083122D
:021F8000080057
:102000002A08F53E0318D52D0B3EDA2D0730AF0018
:10201000E21911280130AA00AB01AE00A914AF01EA
:102020002328621A182883168512831285162328FE
:10203000E21A1F2883168512831285122328E21CB8
:10204000232862192328D52D0A128A15932C0A16E3
:102050008A11D52D2B0803193428013A0319722847
:10206000033A03199928C828E2184828B70A3708FC
:102070000C3C031D4128291F3F28291340282917FC
:10208000472837080C3C031847280130B7006A2856
:1020900062196428B708031D4E28B70A370B532866
:1020A0000C30B7005A2837080C3C03185928B701E0
:1020B0005A28B70337080B3C031D6328291F6228E1
:1020C0002913632829176A28621A6A280130AB008D
:1020D000B000A915E21A6F280A1222260A16281043
:1020E0002914C828E2187B28B80A38083B3C031892
:1020F0007A28B801912862198B28B808031D832813
:102100003B30B8008A2838083C3C03188928B801BD
:102110008A28B8039128621A91280230AB00B000D7
:10212000A915E21A96280A1222260A16281029143E
:10213000C828E21C9D286219A428291EA12829125A
:10214000A2282916A915C028621AC028291EB62857
:102150003708D3003808D400D501291FB128A916A3
:10216000B228A9120A1222260A16C02802308316A3
:10217000C1000830C200C3010A12831298270A1650
:10218000E21AC5280A1222260A1628102914C8287D
:10219000E21ACD280A1222260A1628102914D52D53
:1021A0002B080319DA28013A0319FF28033A031907
:1021B00020296229E218E528B60A41303602083C97
:1021C000031DE4284130B600F7286219F028413099
:1021D0003602031DEE284830B600EF28B603F72874
:1021E000621AF7280130AB000330B000A915E21ADB
:1021F000FC280A1222260A16281029146229E2183D
:102200000929B50A3508083C031808290130B5002A
:10221000182962191229350B10290830B500112927
:10222000B5031829621A18290230AB00B000A915AD
:10223000E21A1D290A1222260A16281029146229D8
:10224000E21C242962192B29291E2829291229294F
:102250002916A9155A29621A5A29291E4F294130CF
:102260003602B20001308316DA0083123208831678
:10227000DB000A128312AD270A1601303502B300C3
:1022800002308316DA00831233088316DB000A1249
:102290008312AD270A160A1222260A165A2903307B
:1022A0008316C1000930C2000430C3000A12831231
:1022B00098270A16E21A5F290A1222260A162810FF
:1022C00029146229E21A67290A1222260A162810FE
:1022D0002914D52D0930AF002914A914E218782942
:1022E000B50A3508083C031877290130B500BB2929
:1022F00062198129350B7F290830B5008029B50383
:10230000BB29621AB62901308316C300831235082F
:102310008316C4000A128312D5270A167808B7005C
:1023200001308316DD00831235088316DE000A12A1
:102330008A1583122B250A168A117808B800F7012E
:10234000B81B7714770801390319A8292917A92977
:1023500029133F30B80505308316C1000830C2008C
:10236000C3010A12831298270A16BB29E21ABB2955
:102370000A1222260A16E21AC0290A1222260A1670
:1023800028102914D52D2B080319CD29013A03193A
:10239000012A033A03192A2A342AE218E029B70A43
:1023A00037080C3C031DDA29291FD8292913D929FC
:1023B0002917DF2937080C3C0318DF29B701002A49
:1023C0006219FA29B708031DE8290C30B700F02973
:1023D00037080C3C0318EF290130B700F029B70388
:1023E00037080B3C031DF929291FF8292913F9295E
:1023F0002917002A621A002A0130AB00B000A91583
:10240000342AB7080319242AE2180D2AB80A380812
:102410003B3C03180C2AB801232A62191D2AB8086C
:10242000031D152A3B30B8001C2A38083C3C031811
:102430001B2AB8011C2AB803232A621A232A023055
:10244000AB00B000A915292AB8010230AB00B000DA
:10245000A915342A01308316C0000A128A15831286
:10246000C2250A168A11342AE21A412A0430831638
:10247000C1000930C2000330C3000A12831298273A
:102480000A1628102914D52D2B0803194E2A013AB3
:102490000319822A033A0319AB2AB42AE218612AE3
:1024A000B70A37080C3C031D5B2A291F592A291338
:1024B0005A2A2917602A37080C3C0318602AB701EA
:1024C000812A62197B2AB708031D692A0C30B700DC
:1024D000712A37080C3C0318702A0130B700712AA2
:1024E000B70337080B3C031D7A2A291F792A2913C1
:1024F0007A2A2917812A621A812A0130AB00B0009A
:10250000A915B42AB7080319A52AE2188E2AB80A11
:1025100038083B3C03188D2AB801A42A62199E2A68
:10252000B808031D962A3B30B8009D2A38083C3C69
:1025300003189C2AB8019D2AB803A42A621AA42A67
:102540000230AB00B000A915AA2AB8010230AB00D6
:10255000B000A915B42A8316C0010A128A15831285
:10256000C2250A168A11B42AE21AC22A0B160430AE
:102570008316C1000930C2000330C3000A1283125F
:1025800098270A1628102914D52D2B080319CF2AAD
:10259000013A0319142B033A0319812BC62BE218B5
:1025A000DA2AB50A3508083C0318D82A0130B500E4
:1025B000A915132B6219E42A350BE12A0830B5005E
:1025C000E22AB503A915132B621A132B2912013025
:1025D0008316DA00831235088316DB00DC015A0803
:1025E000DD005B08DE000A128A1583122B250A160D
:1025F0008A1178088316DC005C1F022B0130F8007A
:10260000052B052B0030F800052BF80803190B2BC0
:1026100083122916831601308312AB000A30AF00F3
:102620000530B000A915C62BE21C182B62191F2B10
:10263000291E1C2B29121D2B2916A915802B621A65
:10264000802B01308316D7005708DD008312350830
:102650008316DE000A128A1583122B250A168A11A8
:1026600078088316D8008312291E3A2B8316581730
:102670003C2B831283165813570B452B01308312C2
:102680003502203E8316D9004B2B013083123502D0
:10269000303E8316D9005908DA005808DB000A12C8
:1026A0008312AD270A168316DA01831235088316C2
:1026B000DB00DC015A08DD005B08DE000A128A1527
:1026C00083122B250A168A1178088316DC005C1FFA
:1026D0006D2B0130F800702B702B0030F800702B40
:1026E000F8080319772B83122916792B8316831286
:1026F00029120230AB000B30AF000530B000A91535
:10270000C62BE21C852B62198C2B291E892B2912C2
:102710008A2B2916A915C52B621AC52B8316D7013A
:102720005708DD00831235088316DE000A128A1569
:1027300083122B250A168A1178088316D800831273
:10274000291EA62B83165817A82B831283165813FD
:10275000570BB12B013083123502203E8316D9006E
:10276000B72B013083123502303E8316D900590849
:10277000DA005808DB000A128312AD270A16AB01F3
:102780000930AF000330B000A915C62BE21ACB2BDD
:102790000A1222260A1628102914D52D2B080319EF
:1027A000D82B013A0319032C033A0319252CB22C18
:1027B000E218E32BB50A3508083C0318E12B013079
:1027C000B500A915022C6219ED2B350BEA2B083048
:1027D000B500EB2BB503A915022C621A022C0130AF
:1027E000AB000C30AF00703003178D0083168C13D4
:1027F0000C1483120C080313D9005908633C031806
:10280000022CD901B22CE2180F2C5908633C031892
:102810000B2CD9010D2C0530D907A915242C6219D0
:102820001B2CD908031D172C5F30D900192C05303B
:10283000D902A915242C621A242C0230AB000D30C9
:10284000AF000530B000A915B22CE21C292C62198A
:10285000302C291E2D2C29122E2C2916A915B12C0D
:10286000621AB12C291EA62C01303502703E831647
:10287000C2004208831203178D0083168C130C14B8
:1028800083120C0883160313C000831259088316A1
:1028900040020318532C6630C300400883125902CB
:1028A0008316C1005A2C6530C30083125908831661
:1028B0004002C100C108031D622C01308312D80000
:1028C000972C83168312BB1301308316D80043085C
:1028D000D900831235088316DA0059088312BD0027
:1028E00083165808DB005A08DC0001305C02DD006A
:1028F0005B0B892C0130F7005D08F8000319842C6C
:102900000310F70DF80B802C77088312B904962C6E
:1029100083160130F7005D08F8000319932C0310AB
:10292000F70DF80B8F2C77088312BA042915703035
:102930008316DA00831259088316DB000A12831209
:10294000AD270A160A1222260A16B12C0830831661
:10295000C1000930C2000330C3000A128312982755
:102960000A16B22CE21AB72C0A1222260A162810CE
:102970002914D52D01308316C0004008C1008312F0
:10298000E218CB2CB50A3508083C0318C92C0130D5
:10299000B500A915402D6219D52C350BD22C083065
:1029A000B500D32CB503A915402D621A402D83160E
:1029B000410B0E2D4108D8005930D900831235083B
:1029C0008316DA0059088312BD0083165808DB000D
:1029D0005A08DC0001305C02DD005B0BFE2C01308C
:1029E000F7005D08F8000319F92C0310F70DF80B38
:1029F000F52C77088312B9040B2D83160130F700EC
:102A00005D08F8000319082D0310F70DF80B042DCD
:102A100077088312BA042915402D83164108D8007F
:102A20005A30D900831235088316DA005908831208
:102A3000BD0083165808DB005A08DC0001305C0238
:102A4000DD005B0B322D0130F7005D08F800031943
:102A50002D2D0310F70DF80B292D77088312B904DB
:102A60003F2D83160130F7005D08F80003193C2D57
:102A70000310F70DF80B382D77088312BA042915C7
:102A8000E21A452D0A1222260A1628102914D52DDD
:102A90008316C0014008C1008312E218582DB50A00
:102AA0003508083C0318562D0130B500A915CD2D69
:102AB0006219622D350B5F2D0830B500602DB5030E
:102AC000A915CD2D621ACD2D8316410B9B2D4108E2
:102AD000D8005930D900831235088316DA00590816
:102AE0008312BD0083165808DB005A08DC00013051
:102AF0005C02DD005B0B8B2D0130F7005D08F800F8
:102B00000319862D0310F70DF80B822D7708831219
:102B1000B904982D83160130F7005D08F8000319F9
:102B2000952D0310F70DF80B912D77088312BA0439
:102B30002915CD2D83164108D8005A30D9008312AB
:102B400035088316DA0059088312BD008316580829
:102B5000DB005A08DC0001305C02DD005B0BBF2D9E
:102B60000130F7005D08F8000319BA2D0310F70DC6
:102B7000F80BB62D77088312B904CC2D83160130DB
:102B8000F7005D08F8000319C92D0310F70DF80BC5
:102B9000C52D77088312BA042915E21AD22D0A121C
:102BA00022260A1628102914D52D281029148A1532
:102BB0000A16A92E0A148A100A1582070628242844
:102BC0002A28D0286A29C329442AC52ACE2BBA2C00
:102BD000482D83164008C1004108DD0083123408E7
:102BE0008316DE000A128A1583122B250A168A1113
:102BF00078088316C2008312A91E062E8316C21FF0
:102C0000042E0130F8000E2E0C2E83128316C21BE8
:102C10000C2E0130F8000E2E0030F800F8080319D1
:102C2000BB2E4008C1004108C3008312340883163C
:102C3000C4000A128312D5270A1678088316C20028
:102C40008312530883164202031D2A2E0130F80016
:102C50002D2E2D2E0030F8002D2EF8080319BB2E36
:102C60004008C1004108DD00831234088316DE00ED
:102C70000A128A1583122B250A168A1178083F3901
:102C80008316C2008312540883164202031D4C2E81
:102C90000130F8004F2E4F2E0030F8004F2EF8086C
:102CA0000319BB2E400B882E4008D8005930D9009C
:102CB000831234088316DA0059088312BD00831684
:102CC0005808DB005A08DC0001305C02DD005B0BB9
:102CD000782E0130F7005D08F8000319732E0310F9
:102CE000F70DF80B6F2E77088312B904852E831623
:102CF0000130F7005D08F8000319822E0310F70D6C
:102D0000F80B7E2E77088312BA042915BA2E831683
:102D10004008D8005A30D900831234088316DA00EC
:102D200059088312BD0083165808DB005A08DC00DE
:102D300001305C02DD005B0BAC2E0130F7005D085A
:102D4000F8000319A72E0310F70DF80BA32E770830
:102D50008312B904B92E83160130F7005D08F8001C
:102D60000319B62E0310F70DF80BB22E7708831255
:102D7000BA04291583168312281F212F83164008B1
:102D8000DA00831234088316DB00DC015A08DD0008
:102D90005B08DE000A128A1583122B250A168A1197
:102DA00078088316DC005C1FD92E0130F800DC2E79
:102DB000DC2E0030F800DC2EF80803191F2F400B22
:102DC0001F2F831233083402031DEB2E8316851246
:102DD000831285121E2F83164008D8005930D9005F
:102DE000831234088316DA0059088312BD00831653
:102DF0005808DB005A08DC0001305C02DD005B0B88
:102E0000102F0130F7005D08F80003190B2F031095
:102E1000F70DF80B072F77088312B9041D2F8316BF
:102E20000130F7005D08F80003191A2F0310F70DA1
:102E3000F80B162F77088312BA0429158316852FED
:102E40008312A81F842F83164008DA0083123408E7
:102E50008316DB00DC015A08DD005B08DE000A1285
:102E60008A1583122B250A168A1178088316DC002E
:102E70005C1F3E2F0130F800412F412F0030F80039
:102E8000412FF8080319852FC008031D852F8312D1
:102E900033083402031D512F8316851283128516C1
:102EA000842F83164008D8005A30D9008312340882
:102EB0008316DA0059088312BD0083165808DB0018
:102EC0005A08DC0001305C02DD005B0B762F01301C
:102ED000F7005D08F8000319712F0310F70DF80BC8
:102EE0006D2F77088312B904832F83160130F70002
:102EF0005D08F8000319802F0310F70DF80B7C2FE5
:0E2F000077088312BA0429158316831208007D
:10300000BB1A132A3208BE00BF0139088316C0005C
:103010000130C100C3014008C20042080139C400A8
:10302000C501440B0229C508031D0229891083121A
:10303000891033083F02031D55288316410B2528AC
:10304000851283128512282883168512831285160D
:1030500083164108C60083123F088316C700460B3B
:1030600041280130F7004708F80003193B280310F6
:10307000F70DF80B37287708FF3A8312B9054F2868
:1030800083160130F7004708F80003194B28031096
:10309000F70DF80B47287708FF3A8312BA05291174
:1030A00083168910831289140129A91FC328BB150F
:1030B0000E30CE003E088316C6000A128312BB26CD
:1030C0000A167808CD00BB1D6A283D08CC00803068
:1030D000CB0075283F088316C6000A128312BB2650
:1030E0000A167808CC004030CB0004308316E2008A
:1030F00003108312CE1F7D2803148316E301620898
:10310000630203188B288312CB0DCC0DCD0DCE0D91
:103110008316E30A7F2816308312BC003B13831604
:10312000091083120910BB16A913D80B9928013076
:10313000D800BB1783164108C60083123F088316C8
:10314000C700460BB3280130F7004708F800031901
:10315000AD280310F70DF80BA9287708FF3A831262
:10316000B905C12883160130F7004708F800031994
:10317000BD280310F70DF80BB9287708FF3A831222
:10318000BA0529110129BB110E30CE003E08831665
:10319000C6000A128312BB260A167808CD00BB1D92
:1031A000D6283D08CC008030CB00E1283F088316AC
:1031B000C6000A128312BB260A167808CC004030DB
:1031C000CB0004308316E20003108312CE1FE928DF
:1031D00003148316E301620863020318F7288312BD
:1031E000CB0DCC0DCD0DCE0D8316E30AEB2816309A
:1031F0008312BC003B138316091083120910BB16FF
:10320000A91783160310C00C8312BF0A3F08073C9E
:10321000031C0C2983160828BF013A088316C00036
:10322000C101C3014008C20042080139C400C50100
:10323000440B092AC508031D092A89108312891025
:1032400033083F02031D5C298316410B2C2985128C
:10325000831285122F2983168512831285168316F1
:103260004108C60083123F088316C700460B482951
:103270000130F7004708F800031942290310F70D41
:10328000F80B3E297708FF3A8312B90556298316B1
:103290000130F7004708F800031952290310F70D11
:1032A000F80B4E297708FF3A8312BA0529118316C5
:1032B000891083128914082AA91FCA29BB150E3048
:1032C000CE003E088316C6000A128312BB260A16D9
:1032D0007808CD00BB1D71293D08CC008030CB00A3
:1032E0007C293F088316C6000A128312BB260A16E1
:1032F0007808CC004030CB0004308316E200031085
:103300008312CE1F842903148316E301620863022B
:10331000031892298312CB0DCC0DCD0DCE0D831643
:10332000E30A862916308312BC003B13831609106A
:1033300083120910BB16A913D80BA0290130D8009D
:10334000BB1783164108C60083123F088316C700C7
:10335000460BBA290130F7004708F8000319B429D1
:103360000310F70DF80BB0297708FF3A8312B9055F
:10337000C82983160130F7004708F8000319C4294B
:103380000310F70DF80BC0297708FF3A8312BA052E
:103390002911082ABB110E30CE003E088316C60044
:1033A0000A128312BB260A167808CD00BB1DDD2940
:1033B0003D08CC008030CB00E8293F088316C600CA
:1033C0000A128312BB260A167808CC004030CB00C4
:1033D00004308316E20003108312CE1FF029031479
:1033E0008316E301620863020318FE298312CB0DE2
:1033F000CC0DCD0DCE0D8316E30AF22916308312C3
:10340000BC003B138316091083120910BB16A917C1
:1034100083160310C00C8312BF0A3F08073C031C2D
:10342000132A831610298A150A16B92E023083161C
:10343000C00083125B085A02031C232A5B085A024D
:10344000F800282A282A5B08203C5A07F800282A76
:103450007808F808031D2E2A00302F2A0130F800C2
:10346000003078180130F800F80803196B2A831629
:10347000C7014708C80083125B0883164807C900C4
:1034800049081F3C03184D2A20304902A03E840001
:1034900083130008F800542A542AA03049078400F6
:1034A00083130008F800542A78087808553C031D57
:1034B0005B2A00305C2A0130F800003078180130B7
:1034C000F800F808031D662A83126B2A0A12831279
:1034D000AB270A161A2A5B085A02031C742A5B08D7
:1034E0005A02F800792A792A5B08203C5A07F8002A
:1034F000792A78087808033C0318A12A8316C701A3
:103500004708C80083125B0883164807C9004908AA
:103510001F3C0318942A20304902A03E84008313E4
:103520000008F8009B2A9B2AA030490784008313D7
:103530000008F8009B2A78087808553C0319A62A49
:1035400083120030F800E92AE92A83160230C70006
:103550004708C80083125B0883164807C90049085A
:103560001F3C0318BC2A20304902A03E840083136C
:103570000008F800C32AC32AA03049078400831337
:103580000008F800C32A780878087808C400831275
:103590005B085A02031CD12A5B085A02F800D62A9B
:1035A000D62A5B08203C5A07F800D62A7808780803
:1035B0008316C500043044074502031CE52A013088
:1035C000F8008312E92AE92A83160030F8008312F2
:1035D000E92AF8080319282E8316C008031DF22AC9
:1035E0008312282EC0030230C7004708C800831288
:1035F0005B0883164807C90049081F3C0318092BBC
:1036000020304902A03E840083130008F800102BEC
:10361000102BA0304907840083130008F800102BFA
:10362000780878087808C500C7014708C8008312E1
:103630005B0883164807C90049081F3C0318292B5B
:1036400020304902A03E840083130008F800302B8C
:10365000302BA0304907840083130008F800302B7A
:1036600078087808C6000130C400043045074402D9
:1036700003185C2B4408C7004708C80083125B0886
:1036800083164807C90049081F3C0318502B2030F7
:103690004902A03E840083130008F800572B572BE3
:1036A000A0304907840083130008F800572B7808DE
:1036B0007808C606C40A352BC6080319612B0030EA
:1036C000622B0130F800003078180130F800F8085B
:1036D0000319D22D0A128312AB270A167808831613
:1036E000C3000A128312AB270A1678088316C1009A
:1036F0000A128312AB270A1678088316C200410803
:10370000C4004208C5004408303A83120319AD2BA7
:10371000013A0319092C033A03190A2C013A031937
:10372000382C073A0319D22C013A0319FF2C033A1B
:103730000319002D013A0319142D0F3A0319152D01
:10374000013A0319292D033A03192A2D013A0319C5
:10375000CA2D073A0319CB2DCC2D0A12AB270A1616
:10376000413078028316C6000A128312AB270A166C
:10377000303078028316C7000A128312AB270A166C
:1037800030307802F80083164810781848148312F5
:10379000320883164602031DD42B481CD22B593005
:1037A000D600D42B5A30D600003048180130D7004C
:1037B0005708D8005608D9004708DA00590883127C
:1037C000BD0083165808DB005A08DC0001305C029B
:1037D000DD005B0BFA2B0130F7005D08F8000319E0
:1037E000F52B0310F70DF80BF12B77088312B904B2
:1037F000072C83160130F7005D08F8000319042C2C
:103800000310F70DF80B002C77088312BA04291562
:10381000CD2DCD2D0A12AB270A1641307802831622
:10382000C6000A128312AB270A16303078028316BC
:10383000C7000A128312AB270A16303078028316AB
:10384000C9008312320883164602031D362C47082E
:103850008312B50070308316DA004908DB000A12C3
:103860008A118312AD270A168A1583168312CD2D6D
:103870000A12AB270A16413078028316C6000A12D4
:103880008312AB270A16303078028316C7000A125B
:103890008312AB270A16303078028316CA000A1248
:1038A0008312AB270A16303078028316CB000A1237
:1038B0008312AB270A16303078028316CC000A1226
:1038C0008312AB270A16303078028316CD000A1215
:1038D0008312AB270A16303078028316CE000A1204
:1038E0008312AB270A16303078028316CF000A12F3
:1038F0008312AB270A16303078028316D0000A12E2
:103900008312AB270A16303078028316D1000A12D0
:103910008312AB270A16303078028316D2000A12BF
:103920008312AB270A16303078028316D300831235
:10393000320883164602031DD02C47088312B500B7
:1039400083164C088312B70083164D088312B80003
:1039500083164E0BAF2C83122917B12C83168312BA
:10396000291301308316D7000A12831252250A1632
:10397000831651088312B700831652088312B800C9
:103980008316530BC72C83122917C92C8316831255
:1039900029138316D7010A12831252250A16831699
:1039A0008312CD2D0A12AB270A1630307802831607
:1039B000CB000A128312AB270A1630307802831626
:1039C000CA000A128312AB270A1630307802D300DD
:1039D0000A12AB270A1630307802D400D5010A1239
:1039E000AB270A16303078028316CE004E0BFC2C23
:1039F0008312A916FE2C83168312A912CD2DCD2D6C
:103A00000A12AB270A1641307802B2000130831641
:103A1000DA00831232088316DB000A128A1183123D
:103A2000AD270A168A15CD2DCD2D0A12AB270A1601
:103A300031307802B30002308316DA008312330883
:103A40008316DB000A128A118312AD270A168A1523
:103A5000CD2DCD2D0A12AB270A16413078028316E0
:103A6000C6000A128312AB270A163030780283167A
:103A7000C7000A128312AB270A1630307802831669
:103A8000D4000A128312AB270A163030780283164C
:103A9000D5008312320883164602031DC82D47083D
:103AA0008312B5008316540B592D831229165B2DF2
:103AB00083168312291201308316D7005708DD00C0
:103AC000831235088316DE000A1283122B250A168C
:103AD00078088316D8008312291E722D8316581772
:103AE000742D831283165813570B7D2D01308312CA
:103AF0003502203E8316D900832D01308312350212
:103B0000303E8316D9005908DA005808DB000A1243
:103B10008A118312AD270A168A158316550B942D28
:103B200083122916962D8316831229128316D70124
:103B30005708DD00831235088316DE000A1283124F
:103B40002B250A1678088316D8008312291EAC2D5F
:103B500083165817AE2D831283165813570BB72DA3
:103B6000013083123502203E8316D900BD2D01306D
:103B700083123502303E8316D9005908DA005808FE
:103B8000DB000A128A118312AD270A168A158316E2
:103B90008312CD2DCD2DCD2DCD2D0A12AB270A169A
:103BA000D62D83160A128312AB270A165B085A0217
:103BB000031CDF2D5B085A02F800E42DE42D5B089E
:103BC000203C5A07F800E42D7808F808031DEA2D78
:103BD0000030EB2D0130F800003078180130F8008B
:103BE000F8080319272E8316C7014708C800831257
:103BF0005B0883164807C90049081F3C0318092EB3
:103C000020304902A03E840083130008F800102EE3
:103C1000102EA0304907840083130008F800102EEE
:103C200078087808553C031D172E0030182E0130F7
:103C3000F800003078180130F800F808031D222E33
:103C40008312272E0A128312AB270A16D62D6B2A4F
:103C50008A150A16D52E840183131F3083050A3076
:103C600083169900A6309800903083129800A8011E
:103C7000FF30D100DA01DB015C100C30DD0083166F
:103C80001F149F141F159F11FF3086000A128A11FE
:103C90008312492C0A168A150A128A11EF2C0A1669
:103CA0008A150A128A11072D0A168A150A128A1114
:103CB000102D0A168A150A128A111C2D0A168A1549
:103CC0000A128A11252D0A168A150A128A113A2D0E
:103CD0000A168A150A128A11412D0A168A150A1225
:103CE0008A11482D0A168A150A128A1122260A16E6
:103CF0008A15A91C802E0A128A1124270A168A15F1
:103D00000A1280210A16A91D882E0A1225240A16D5
:103D10002910A910A91183168C16C03083128B04A8
:103D2000423003178D0004308F000313A7018B1B53
:103D3000A7178B130A128A1199200A168A15A71B36
:103D40008B178316891083128914281CAA2E8A11B6
:103D500000288A15A81CB12E0A128A1122260A16DA
:103D60008A15281DB62E0A12732E0A16291DB92E81
:103D700000283B1EBE2E0A122C2F0A16291CD22EFA
:103D8000A91CC72E0A128A1124270A168A150A129C
:103D900080210A16A91DCF2E0A1225240A162910E1
:0E3DA000A910A9115C1CD52E162AA52ED62E10
:02400E003A373F
:00000001FF
;PIC16F877
;CRC=20F4  CREATED="19-mai-16 11:59"
